{
  "contractName": "Funoken",
  "abi": [
    {
      "inputs": [],
      "stateMutability": "nonpayable",
      "type": "constructor"
    },
    {
      "anonymous": false,
      "inputs": [
        {
          "indexed": true,
          "internalType": "address",
          "name": "owner",
          "type": "address"
        },
        {
          "indexed": true,
          "internalType": "address",
          "name": "approved",
          "type": "address"
        },
        {
          "indexed": true,
          "internalType": "uint256",
          "name": "tokenId",
          "type": "uint256"
        }
      ],
      "name": "Approval",
      "type": "event"
    },
    {
      "anonymous": false,
      "inputs": [
        {
          "indexed": true,
          "internalType": "address",
          "name": "owner",
          "type": "address"
        },
        {
          "indexed": true,
          "internalType": "address",
          "name": "operator",
          "type": "address"
        },
        {
          "indexed": false,
          "internalType": "bool",
          "name": "approved",
          "type": "bool"
        }
      ],
      "name": "ApprovalForAll",
      "type": "event"
    },
    {
      "anonymous": false,
      "inputs": [
        {
          "indexed": false,
          "internalType": "uint256",
          "name": "tokenId",
          "type": "uint256"
        },
        {
          "indexed": false,
          "internalType": "address",
          "name": "currentOwner",
          "type": "address"
        }
      ],
      "name": "Auction",
      "type": "event"
    },
    {
      "anonymous": false,
      "inputs": [
        {
          "indexed": false,
          "internalType": "address",
          "name": "bidder",
          "type": "address"
        },
        {
          "indexed": false,
          "internalType": "uint256",
          "name": "tokenId",
          "type": "uint256"
        },
        {
          "indexed": false,
          "internalType": "uint256",
          "name": "amount",
          "type": "uint256"
        }
      ],
      "name": "Bid",
      "type": "event"
    },
    {
      "anonymous": false,
      "inputs": [
        {
          "indexed": false,
          "internalType": "uint256",
          "name": "tokenId",
          "type": "uint256"
        },
        {
          "indexed": false,
          "internalType": "address",
          "name": "from",
          "type": "address"
        },
        {
          "indexed": false,
          "internalType": "address",
          "name": "to",
          "type": "address"
        },
        {
          "indexed": false,
          "internalType": "uint256",
          "name": "amount",
          "type": "uint256"
        }
      ],
      "name": "Transaction",
      "type": "event"
    },
    {
      "anonymous": false,
      "inputs": [
        {
          "indexed": true,
          "internalType": "address",
          "name": "from",
          "type": "address"
        },
        {
          "indexed": true,
          "internalType": "address",
          "name": "to",
          "type": "address"
        },
        {
          "indexed": true,
          "internalType": "uint256",
          "name": "tokenId",
          "type": "uint256"
        }
      ],
      "name": "Transfer",
      "type": "event"
    },
    {
      "inputs": [
        {
          "internalType": "address",
          "name": "to",
          "type": "address"
        },
        {
          "internalType": "uint256",
          "name": "tokenId",
          "type": "uint256"
        }
      ],
      "name": "approve",
      "outputs": [],
      "stateMutability": "nonpayable",
      "type": "function"
    },
    {
      "inputs": [
        {
          "internalType": "address",
          "name": "owner",
          "type": "address"
        }
      ],
      "name": "balanceOf",
      "outputs": [
        {
          "internalType": "uint256",
          "name": "",
          "type": "uint256"
        }
      ],
      "stateMutability": "view",
      "type": "function",
      "constant": true
    },
    {
      "inputs": [
        {
          "internalType": "uint256",
          "name": "tokenId",
          "type": "uint256"
        }
      ],
      "name": "getApproved",
      "outputs": [
        {
          "internalType": "address",
          "name": "",
          "type": "address"
        }
      ],
      "stateMutability": "view",
      "type": "function",
      "constant": true
    },
    {
      "inputs": [
        {
          "internalType": "uint256",
          "name": "",
          "type": "uint256"
        }
      ],
      "name": "idToBid",
      "outputs": [
        {
          "internalType": "bool",
          "name": "forSale",
          "type": "bool"
        },
        {
          "internalType": "uint256",
          "name": "highestBid",
          "type": "uint256"
        },
        {
          "internalType": "address",
          "name": "highestBidder",
          "type": "address"
        },
        {
          "internalType": "uint256",
          "name": "auctionStart",
          "type": "uint256"
        },
        {
          "internalType": "uint8",
          "name": "bidsPlaced",
          "type": "uint8"
        },
        {
          "internalType": "uint8",
          "name": "activeTime",
          "type": "uint8"
        }
      ],
      "stateMutability": "view",
      "type": "function",
      "constant": true
    },
    {
      "inputs": [
        {
          "internalType": "address",
          "name": "owner",
          "type": "address"
        },
        {
          "internalType": "address",
          "name": "operator",
          "type": "address"
        }
      ],
      "name": "isApprovedForAll",
      "outputs": [
        {
          "internalType": "bool",
          "name": "",
          "type": "bool"
        }
      ],
      "stateMutability": "view",
      "type": "function",
      "constant": true
    },
    {
      "inputs": [],
      "name": "name",
      "outputs": [
        {
          "internalType": "string",
          "name": "",
          "type": "string"
        }
      ],
      "stateMutability": "view",
      "type": "function",
      "constant": true
    },
    {
      "inputs": [
        {
          "internalType": "uint256",
          "name": "tokenId",
          "type": "uint256"
        }
      ],
      "name": "ownerOf",
      "outputs": [
        {
          "internalType": "address",
          "name": "",
          "type": "address"
        }
      ],
      "stateMutability": "view",
      "type": "function",
      "constant": true
    },
    {
      "inputs": [
        {
          "internalType": "address",
          "name": "from",
          "type": "address"
        },
        {
          "internalType": "address",
          "name": "to",
          "type": "address"
        },
        {
          "internalType": "uint256",
          "name": "tokenId",
          "type": "uint256"
        }
      ],
      "name": "safeTransferFrom",
      "outputs": [],
      "stateMutability": "nonpayable",
      "type": "function"
    },
    {
      "inputs": [
        {
          "internalType": "address",
          "name": "from",
          "type": "address"
        },
        {
          "internalType": "address",
          "name": "to",
          "type": "address"
        },
        {
          "internalType": "uint256",
          "name": "tokenId",
          "type": "uint256"
        },
        {
          "internalType": "bytes",
          "name": "_data",
          "type": "bytes"
        }
      ],
      "name": "safeTransferFrom",
      "outputs": [],
      "stateMutability": "nonpayable",
      "type": "function"
    },
    {
      "inputs": [
        {
          "internalType": "address",
          "name": "operator",
          "type": "address"
        },
        {
          "internalType": "bool",
          "name": "approved",
          "type": "bool"
        }
      ],
      "name": "setApprovalForAll",
      "outputs": [],
      "stateMutability": "nonpayable",
      "type": "function"
    },
    {
      "inputs": [
        {
          "internalType": "bytes4",
          "name": "interfaceId",
          "type": "bytes4"
        }
      ],
      "name": "supportsInterface",
      "outputs": [
        {
          "internalType": "bool",
          "name": "",
          "type": "bool"
        }
      ],
      "stateMutability": "view",
      "type": "function",
      "constant": true
    },
    {
      "inputs": [],
      "name": "symbol",
      "outputs": [
        {
          "internalType": "string",
          "name": "",
          "type": "string"
        }
      ],
      "stateMutability": "view",
      "type": "function",
      "constant": true
    },
    {
      "inputs": [
        {
          "internalType": "uint256",
          "name": "tokenId",
          "type": "uint256"
        }
      ],
      "name": "tokenURI",
      "outputs": [
        {
          "internalType": "string",
          "name": "",
          "type": "string"
        }
      ],
      "stateMutability": "view",
      "type": "function",
      "constant": true
    },
    {
      "inputs": [
        {
          "internalType": "address",
          "name": "from",
          "type": "address"
        },
        {
          "internalType": "address",
          "name": "to",
          "type": "address"
        },
        {
          "internalType": "uint256",
          "name": "tokenId",
          "type": "uint256"
        }
      ],
      "name": "transferFrom",
      "outputs": [],
      "stateMutability": "nonpayable",
      "type": "function"
    },
    {
      "inputs": [
        {
          "internalType": "string",
          "name": "tokenURI",
          "type": "string"
        }
      ],
      "name": "mintToken",
      "outputs": [
        {
          "internalType": "uint256",
          "name": "",
          "type": "uint256"
        }
      ],
      "stateMutability": "nonpayable",
      "type": "function"
    },
    {
      "inputs": [
        {
          "internalType": "uint256",
          "name": "itemId",
          "type": "uint256"
        },
        {
          "internalType": "uint256",
          "name": "amount",
          "type": "uint256"
        },
        {
          "internalType": "uint8",
          "name": "active",
          "type": "uint8"
        }
      ],
      "name": "auction",
      "outputs": [],
      "stateMutability": "nonpayable",
      "type": "function"
    },
    {
      "inputs": [
        {
          "internalType": "uint256",
          "name": "itemId",
          "type": "uint256"
        }
      ],
      "name": "bid",
      "outputs": [],
      "stateMutability": "payable",
      "type": "function",
      "payable": true
    },
    {
      "inputs": [
        {
          "internalType": "uint256",
          "name": "itemId",
          "type": "uint256"
        }
      ],
      "name": "endAuction",
      "outputs": [],
      "stateMutability": "nonpayable",
      "type": "function"
    }
  ],
  "bytecode": "0x60806040523480156200001157600080fd5b506040805180820182526007815266233ab737b5b2b760c91b60208083019182528351808501909452600384526246544b60e81b9084015281519192916200005c916000916200007b565b508051620000729060019060208401906200007b565b5050506200015e565b828054620000899062000121565b90600052602060002090601f016020900481019282620000ad5760008555620000f8565b82601f10620000c857805160ff1916838001178555620000f8565b82800160010185558215620000f8579182015b82811115620000f8578251825591602001919060010190620000db565b50620001069291506200010a565b5090565b5b808211156200010657600081556001016200010b565b600181811c908216806200013657607f821691505b602082108114156200015857634e487b7160e01b600052602260045260246000fd5b50919050565b6128b2806200016e6000396000f3fe6080604052600436106101295760003560e01c806370a08231116100a5578063b9a2de3a11610074578063d23c39a211610059578063d23c39a214610342578063e914a9fc14610362578063e985e9c51461041e57600080fd5b8063b9a2de3a14610302578063c87b56dd1461032257600080fd5b806370a082311461028d57806395d89b41146102ad578063a22cb465146102c2578063b88d4fde146102e257600080fd5b806323b872dd116100fc57806342842e0e116100e157806342842e0e1461023a578063454a2ab31461025a5780636352211e1461026d57600080fd5b806323b872dd146101ec57806333eba49a1461020c57600080fd5b806301ffc9a71461012e57806306fdde0314610163578063081812fc14610185578063095ea7b3146101ca575b600080fd5b34801561013a57600080fd5b5061014e61014936600461228d565b610474565b60405190151581526020015b60405180910390f35b34801561016f57600080fd5b50610178610559565b60405161015a9190612320565b34801561019157600080fd5b506101a56101a0366004612333565b6105eb565b60405173ffffffffffffffffffffffffffffffffffffffff909116815260200161015a565b3480156101d657600080fd5b506101ea6101e5366004612375565b6106ca565b005b3480156101f857600080fd5b506101ea61020736600461239f565b610857565b34801561021857600080fd5b5061022c61022736600461249e565b6108f8565b60405190815260200161015a565b34801561024657600080fd5b506101ea61025536600461239f565b610a37565b6101ea610268366004612333565b610a52565b34801561027957600080fd5b506101a5610288366004612333565b610cb6565b34801561029957600080fd5b5061022c6102a83660046124e7565b610d68565b3480156102b957600080fd5b50610178610e36565b3480156102ce57600080fd5b506101ea6102dd366004612502565b610e45565b3480156102ee57600080fd5b506101ea6102fd36600461253e565b610f5c565b34801561030e57600080fd5b506101ea61031d366004612333565b611004565b34801561032e57600080fd5b5061017861033d366004612333565b6112e1565b34801561034e57600080fd5b506101ea61035d3660046125ba565b61149b565b34801561036e57600080fd5b506103d161037d366004612333565b6008602052600090815260409020805460018201546002830154600384015460049094015460ff93841694929373ffffffffffffffffffffffffffffffffffffffff90921692918181169161010090041686565b604080519615158752602087019590955273ffffffffffffffffffffffffffffffffffffffff90931693850193909352606084015260ff91821660808401521660a082015260c00161015a565b34801561042a57600080fd5b5061014e6104393660046125f9565b73ffffffffffffffffffffffffffffffffffffffff918216600090815260056020908152604080832093909416825291909152205460ff1690565b60007fffffffff0000000000000000000000000000000000000000000000000000000082167f80ac58cd00000000000000000000000000000000000000000000000000000000148061050757507fffffffff0000000000000000000000000000000000000000000000000000000082167f5b5e139f00000000000000000000000000000000000000000000000000000000145b8061055357507f01ffc9a7000000000000000000000000000000000000000000000000000000007fffffffff000000000000000000000000000000000000000000000000000000008316145b92915050565b6060600080546105689061262c565b80601f01602080910402602001604051908101604052809291908181526020018280546105949061262c565b80156105e15780601f106105b6576101008083540402835291602001916105e1565b820191906000526020600020905b8154815290600101906020018083116105c457829003601f168201915b5050505050905090565b60008181526002602052604081205473ffffffffffffffffffffffffffffffffffffffff166106a1576040517f08c379a000000000000000000000000000000000000000000000000000000000815260206004820152602c60248201527f4552433732313a20617070726f76656420717565727920666f72206e6f6e657860448201527f697374656e7420746f6b656e000000000000000000000000000000000000000060648201526084015b60405180910390fd5b5060009081526004602052604090205473ffffffffffffffffffffffffffffffffffffffff1690565b60006106d582610cb6565b90508073ffffffffffffffffffffffffffffffffffffffff168373ffffffffffffffffffffffffffffffffffffffff161415610793576040517f08c379a000000000000000000000000000000000000000000000000000000000815260206004820152602160248201527f4552433732313a20617070726f76616c20746f2063757272656e74206f776e6560448201527f72000000000000000000000000000000000000000000000000000000000000006064820152608401610698565b3373ffffffffffffffffffffffffffffffffffffffff821614806107bc57506107bc8133610439565b610848576040517f08c379a000000000000000000000000000000000000000000000000000000000815260206004820152603860248201527f4552433732313a20617070726f76652063616c6c6572206973206e6f74206f7760448201527f6e6572206e6f7220617070726f76656420666f7220616c6c00000000000000006064820152608401610698565b61085283836115cd565b505050565b610861338261166d565b6108ed576040517f08c379a000000000000000000000000000000000000000000000000000000000815260206004820152603160248201527f4552433732313a207472616e736665722063616c6c6572206973206e6f74206f60448201527f776e6572206e6f7220617070726f7665640000000000000000000000000000006064820152608401610698565b6108528383836117d9565b6000610908600780546001019055565b600061091360075490565b905061091f3382611a40565b6109298184611c02565b6040805160c08101825260008082526020808301828152838501838152606085018481526080860185815260a08701868152898752600890955296909420945185549015157fffffffffffffffffffffffffffffffffffffffffffffffffffffffffffffff00909116178555905160018501555160028401805473ffffffffffffffffffffffffffffffffffffffff929092167fffffffffffffffffffffffff000000000000000000000000000000000000000090921691909117905590516003830155915160049091018054925160ff908116610100027fffffffffffffffffffffffffffffffffffffffffffffffffffffffffffff000090941692169190911791909117905592915050565b61085283838360405180602001604052806000815250610f5c565b600081815260086020526040902054819060ff16610a6f57600080fd5b600082815260086020526040902060040154610a9590610100900460ff16610e106126af565b600083815260086020526040902060030154610ab59161ffff16906126d9565b4210610ac057600080fd5b600082815260086020526040902060010154610ae39066038d7ea4c680006126d9565b3411610b4b576040517f08c379a000000000000000000000000000000000000000000000000000000000815260206004820152601260248201527f426964206d7573742062652068696768657200000000000000000000000000006044820152606401610698565b610b5482610cb6565b73ffffffffffffffffffffffffffffffffffffffff163373ffffffffffffffffffffffffffffffffffffffff161415610b8c57600080fd5b60008281526008602052604090206004015460ff1615610c03576000828152600860205260408082206002810154600190910154915173ffffffffffffffffffffffffffffffffffffffff9091169282156108fc02929190818181858888f19350505050158015610c01573d6000803e3d6000fd5b505b60008281526008602052604081203460018201556002810180547fffffffffffffffffffffffff00000000000000000000000000000000000000001633179055600401805460ff1691610c55836126f1565b82546101009290920a60ff818102199093169190921691909102179055506040805133815260208101849052348183015290517f19421268847f42dd61705778018ddfc43bcdce8517e7a630acb12f122c7094819181900360600190a15050565b60008181526002602052604081205473ffffffffffffffffffffffffffffffffffffffff1680610553576040517f08c379a000000000000000000000000000000000000000000000000000000000815260206004820152602960248201527f4552433732313a206f776e657220717565727920666f72206e6f6e657869737460448201527f656e7420746f6b656e00000000000000000000000000000000000000000000006064820152608401610698565b600073ffffffffffffffffffffffffffffffffffffffff8216610e0d576040517f08c379a000000000000000000000000000000000000000000000000000000000815260206004820152602a60248201527f4552433732313a2062616c616e636520717565727920666f7220746865207a6560448201527f726f2061646472657373000000000000000000000000000000000000000000006064820152608401610698565b5073ffffffffffffffffffffffffffffffffffffffff1660009081526003602052604090205490565b6060600180546105689061262c565b73ffffffffffffffffffffffffffffffffffffffff8216331415610ec5576040517f08c379a000000000000000000000000000000000000000000000000000000000815260206004820152601960248201527f4552433732313a20617070726f766520746f2063616c6c6572000000000000006044820152606401610698565b33600081815260056020908152604080832073ffffffffffffffffffffffffffffffffffffffff87168085529083529281902080547fffffffffffffffffffffffffffffffffffffffffffffffffffffffffffffff001686151590811790915590519081529192917f17307eab39ab6107e8899845ad3d59bd9653f200f220920489ca2b5937696c31910160405180910390a35050565b610f66338361166d565b610ff2576040517f08c379a000000000000000000000000000000000000000000000000000000000815260206004820152603160248201527f4552433732313a207472616e736665722063616c6c6572206973206e6f74206f60448201527f776e6572206e6f7220617070726f7665640000000000000000000000000000006064820152608401610698565b610ffe84848484611cd2565b50505050565b600081815260086020526040902054819060ff1661102157600080fd5b8161102b81610cb6565b73ffffffffffffffffffffffffffffffffffffffff163373ffffffffffffffffffffffffffffffffffffffff161461106257600080fd5b60008381526008602052604090206004015461108890610100900460ff16610e106126af565b6000848152600860205260409020600301546110a89161ffff16906126d9565b4211611110576040517f08c379a000000000000000000000000000000000000000000000000000000000815260206004820152601e60248201527f41756374696f6e2074696d6520686173206e6f7420656e6465642079657400006044820152606401610698565b60008381526008602052604090206004015460ff16156112455761113383610cb6565b60008481526008602052604080822060010154905173ffffffffffffffffffffffffffffffffffffffff939093169281156108fc0292818181858888f19350505050158015611186573d6000803e3d6000fd5b507f63a29b125d68907b7c9a82b8e1c87c77e7bec8afb90cae5d5d2dfadc1ab7d628836111b285610cb6565b6000868152600860209081526040918290206002810154600190910154835195865273ffffffffffffffffffffffffffffffffffffffff948516928601929092529290921690830152606082015260800160405180910390a161124561121784610cb6565b60008581526008602052604090206002015473ffffffffffffffffffffffffffffffffffffffff1685610857565b5050600090815260086020526040812080547fffffffffffffffffffffffffffffffffffffffffffffffffffffffffffffff00168155600481018054600183018490556002830180547fffffffffffffffffffffffff00000000000000000000000000000000000000001690556003909201929092557fffffffffffffffffffffffffffffffffffffffffffffffffffffffffffff0000169055565b60008181526002602052604090205460609073ffffffffffffffffffffffffffffffffffffffff16611395576040517f08c379a000000000000000000000000000000000000000000000000000000000815260206004820152603160248201527f45524337323155524953746f726167653a2055524920717565727920666f722060448201527f6e6f6e6578697374656e7420746f6b656e0000000000000000000000000000006064820152608401610698565b600082815260066020526040812080546113ae9061262c565b80601f01602080910402602001604051908101604052809291908181526020018280546113da9061262c565b80156114275780601f106113fc57610100808354040283529160200191611427565b820191906000526020600020905b81548152906001019060200180831161140a57829003601f168201915b50505050509050600061144560408051602081019091526000815290565b9050805160001415611458575092915050565b81511561148a578082604051602001611472929190612711565b60405160208183030381529060405292505050919050565b61149384611d75565b949350505050565b826114a581610cb6565b73ffffffffffffffffffffffffffffffffffffffff163373ffffffffffffffffffffffffffffffffffffffff16146114dc57600080fd5b60008481526008602052604090205460ff16156114f857600080fd5b6000848152600860205260409020805460017fffffffffffffffffffffffffffffffffffffffffffffffffffffffffffffff0090911681178255810184905542600382015560040180547fffffffffffffffffffffffffffffffffffffffffffffffffffffffffffff00ff1661010060ff8516021790557f93ecfd1d829b65ca000a41074bed22c17dfce86a1c7fe8f890e48dca0d3524338461159a81610cb6565b6040805192835273ffffffffffffffffffffffffffffffffffffffff90911660208301520160405180910390a150505050565b600081815260046020526040902080547fffffffffffffffffffffffff00000000000000000000000000000000000000001673ffffffffffffffffffffffffffffffffffffffff8416908117909155819061162782610cb6565b73ffffffffffffffffffffffffffffffffffffffff167f8c5be1e5ebec7d5bd14f71427d1e84f3dd0314c0f7b2291e5b200ac8c7c3b92560405160405180910390a45050565b60008181526002602052604081205473ffffffffffffffffffffffffffffffffffffffff1661171e576040517f08c379a000000000000000000000000000000000000000000000000000000000815260206004820152602c60248201527f4552433732313a206f70657261746f7220717565727920666f72206e6f6e657860448201527f697374656e7420746f6b656e00000000000000000000000000000000000000006064820152608401610698565b600061172983610cb6565b90508073ffffffffffffffffffffffffffffffffffffffff168473ffffffffffffffffffffffffffffffffffffffff16148061179857508373ffffffffffffffffffffffffffffffffffffffff16611780846105eb565b73ffffffffffffffffffffffffffffffffffffffff16145b80611493575073ffffffffffffffffffffffffffffffffffffffff80821660009081526005602090815260408083209388168352929052205460ff16611493565b8273ffffffffffffffffffffffffffffffffffffffff166117f982610cb6565b73ffffffffffffffffffffffffffffffffffffffff161461189c576040517f08c379a000000000000000000000000000000000000000000000000000000000815260206004820152602960248201527f4552433732313a207472616e73666572206f6620746f6b656e2074686174206960448201527f73206e6f74206f776e00000000000000000000000000000000000000000000006064820152608401610698565b73ffffffffffffffffffffffffffffffffffffffff821661193e576040517f08c379a0000000000000000000000000000000000000000000000000000000008152602060048201526024808201527f4552433732313a207472616e7366657220746f20746865207a65726f2061646460448201527f72657373000000000000000000000000000000000000000000000000000000006064820152608401610698565b6119496000826115cd565b73ffffffffffffffffffffffffffffffffffffffff8316600090815260036020526040812080546001929061197f908490612740565b909155505073ffffffffffffffffffffffffffffffffffffffff821660009081526003602052604081208054600192906119ba9084906126d9565b909155505060008181526002602052604080822080547fffffffffffffffffffffffff00000000000000000000000000000000000000001673ffffffffffffffffffffffffffffffffffffffff86811691821790925591518493918716917fddf252ad1be2c89b69c2b068fc378daa952ba7f163c4a11628f55a4df523b3ef91a4505050565b73ffffffffffffffffffffffffffffffffffffffff8216611abd576040517f08c379a000000000000000000000000000000000000000000000000000000000815260206004820181905260248201527f4552433732313a206d696e7420746f20746865207a65726f20616464726573736044820152606401610698565b60008181526002602052604090205473ffffffffffffffffffffffffffffffffffffffff1615611b49576040517f08c379a000000000000000000000000000000000000000000000000000000000815260206004820152601c60248201527f4552433732313a20746f6b656e20616c7265616479206d696e746564000000006044820152606401610698565b73ffffffffffffffffffffffffffffffffffffffff82166000908152600360205260408120805460019290611b7f9084906126d9565b909155505060008181526002602052604080822080547fffffffffffffffffffffffff00000000000000000000000000000000000000001673ffffffffffffffffffffffffffffffffffffffff861690811790915590518392907fddf252ad1be2c89b69c2b068fc378daa952ba7f163c4a11628f55a4df523b3ef908290a45050565b60008281526002602052604090205473ffffffffffffffffffffffffffffffffffffffff16611cb3576040517f08c379a000000000000000000000000000000000000000000000000000000000815260206004820152602e60248201527f45524337323155524953746f726167653a2055524920736574206f66206e6f6e60448201527f6578697374656e7420746f6b656e0000000000000000000000000000000000006064820152608401610698565b60008281526006602090815260409091208251610852928401906121c3565b611cdd8484846117d9565b611ce984848484611e92565b610ffe576040517f08c379a000000000000000000000000000000000000000000000000000000000815260206004820152603260248201527f4552433732313a207472616e7366657220746f206e6f6e20455243373231526560448201527f63656976657220696d706c656d656e74657200000000000000000000000000006064820152608401610698565b60008181526002602052604090205460609073ffffffffffffffffffffffffffffffffffffffff16611e29576040517f08c379a000000000000000000000000000000000000000000000000000000000815260206004820152602f60248201527f4552433732314d657461646174613a2055524920717565727920666f72206e6f60448201527f6e6578697374656e7420746f6b656e00000000000000000000000000000000006064820152608401610698565b6000611e4060408051602081019091526000815290565b90506000815111611e605760405180602001604052806000815250611e8b565b80611e6a84612091565b604051602001611e7b929190612711565b6040516020818303038152906040525b9392505050565b600073ffffffffffffffffffffffffffffffffffffffff84163b15612086576040517f150b7a0200000000000000000000000000000000000000000000000000000000815273ffffffffffffffffffffffffffffffffffffffff85169063150b7a0290611f09903390899088908890600401612757565b602060405180830381600087803b158015611f2357600080fd5b505af1925050508015611f71575060408051601f3d9081017fffffffffffffffffffffffffffffffffffffffffffffffffffffffffffffffe0168201909252611f6e918101906127a0565b60015b61203b573d808015611f9f576040519150601f19603f3d011682016040523d82523d6000602084013e611fa4565b606091505b508051612033576040517f08c379a000000000000000000000000000000000000000000000000000000000815260206004820152603260248201527f4552433732313a207472616e7366657220746f206e6f6e20455243373231526560448201527f63656976657220696d706c656d656e74657200000000000000000000000000006064820152608401610698565b805181602001fd5b7fffffffff00000000000000000000000000000000000000000000000000000000167f150b7a0200000000000000000000000000000000000000000000000000000000149050611493565b506001949350505050565b6060816120d157505060408051808201909152600181527f3000000000000000000000000000000000000000000000000000000000000000602082015290565b8160005b81156120fb57806120e5816127bd565b91506120f49050600a83612825565b91506120d5565b60008167ffffffffffffffff811115612116576121166123db565b6040519080825280601f01601f191660200182016040528015612140576020820181803683370190505b5090505b841561149357612155600183612740565b9150612162600a86612839565b61216d9060306126d9565b60f81b8183815181106121825761218261284d565b60200101907effffffffffffffffffffffffffffffffffffffffffffffffffffffffffffff1916908160001a9053506121bc600a86612825565b9450612144565b8280546121cf9061262c565b90600052602060002090601f0160209004810192826121f15760008555612237565b82601f1061220a57805160ff1916838001178555612237565b82800160010185558215612237579182015b8281111561223757825182559160200191906001019061221c565b50612243929150612247565b5090565b5b808211156122435760008155600101612248565b7fffffffff000000000000000000000000000000000000000000000000000000008116811461228a57600080fd5b50565b60006020828403121561229f57600080fd5b8135611e8b8161225c565b60005b838110156122c55781810151838201526020016122ad565b83811115610ffe5750506000910152565b600081518084526122ee8160208601602086016122aa565b601f017fffffffffffffffffffffffffffffffffffffffffffffffffffffffffffffffe0169290920160200192915050565b602081526000611e8b60208301846122d6565b60006020828403121561234557600080fd5b5035919050565b803573ffffffffffffffffffffffffffffffffffffffff8116811461237057600080fd5b919050565b6000806040838503121561238857600080fd5b6123918361234c565b946020939093013593505050565b6000806000606084860312156123b457600080fd5b6123bd8461234c565b92506123cb6020850161234c565b9150604084013590509250925092565b7f4e487b7100000000000000000000000000000000000000000000000000000000600052604160045260246000fd5b600067ffffffffffffffff80841115612425576124256123db565b604051601f85017fffffffffffffffffffffffffffffffffffffffffffffffffffffffffffffffe0908116603f0116810190828211818310171561246b5761246b6123db565b8160405280935085815286868601111561248457600080fd5b858560208301376000602087830101525050509392505050565b6000602082840312156124b057600080fd5b813567ffffffffffffffff8111156124c757600080fd5b8201601f810184136124d857600080fd5b6114938482356020840161240a565b6000602082840312156124f957600080fd5b611e8b8261234c565b6000806040838503121561251557600080fd5b61251e8361234c565b91506020830135801515811461253357600080fd5b809150509250929050565b6000806000806080858703121561255457600080fd5b61255d8561234c565b935061256b6020860161234c565b925060408501359150606085013567ffffffffffffffff81111561258e57600080fd5b8501601f8101871361259f57600080fd5b6125ae8782356020840161240a565b91505092959194509250565b6000806000606084860312156125cf57600080fd5b8335925060208401359150604084013560ff811681146125ee57600080fd5b809150509250925092565b6000806040838503121561260c57600080fd5b6126158361234c565b91506126236020840161234c565b90509250929050565b600181811c9082168061264057607f821691505b6020821081141561267a577f4e487b7100000000000000000000000000000000000000000000000000000000600052602260045260246000fd5b50919050565b7f4e487b7100000000000000000000000000000000000000000000000000000000600052601160045260246000fd5b600061ffff808316818516818304811182151516156126d0576126d0612680565b02949350505050565b600082198211156126ec576126ec612680565b500190565b600060ff821660ff81141561270857612708612680565b60010192915050565b600083516127238184602088016122aa565b8351908301906127378183602088016122aa565b01949350505050565b60008282101561275257612752612680565b500390565b600073ffffffffffffffffffffffffffffffffffffffff80871683528086166020840152508360408301526080606083015261279660808301846122d6565b9695505050505050565b6000602082840312156127b257600080fd5b8151611e8b8161225c565b60007fffffffffffffffffffffffffffffffffffffffffffffffffffffffffffffffff8214156127ef576127ef612680565b5060010190565b7f4e487b7100000000000000000000000000000000000000000000000000000000600052601260045260246000fd5b600082612834576128346127f6565b500490565b600082612848576128486127f6565b500690565b7f4e487b7100000000000000000000000000000000000000000000000000000000600052603260045260246000fdfea26469706673582212203f923970c69d439c89a19998e8013c5411229cd4a6b40a0254228b1ed28d1ac964736f6c63430008090033",
  "immutableReferences": {},
  "source": "// SPDX-License-Identifier: GPL-3.0\r\npragma solidity ^0.8.0;\r\n\r\nimport \"@openzeppelin/contracts/token/ERC721/extensions/ERC721URIStorage.sol\";\r\nimport \"@openzeppelin/contracts/utils/Counters.sol\";\r\n\r\ncontract Funoken is ERC721URIStorage {\r\n    using Counters for Counters.Counter;\r\n    Counters.Counter private _tokenIds;\r\n    \r\n    struct TokenBid{\r\n        bool forSale;\r\n        uint256 highestBid;\r\n        address highestBidder;\r\n        uint256 auctionStart;\r\n        uint8 bidsPlaced;\r\n        uint8 activeTime;\r\n    }\r\n    \r\n    mapping (uint256 => TokenBid) public idToBid;\r\n    event Bid(address bidder, uint256 tokenId, uint256 amount);\r\n    event Auction(uint256 tokenId, address currentOwner);\r\n    event Transaction(uint256 tokenId, address from, address to, uint256 amount);\r\n\r\n    modifier upForSale (uint256 _itemId) {\r\n        require(idToBid[_itemId].forSale);\r\n        _;\r\n    }\r\n    modifier onlyOwner (uint256 _itemId){\r\n        require(msg.sender == ownerOf(_itemId));\r\n        _;\r\n    }\r\n    \r\n    constructor() ERC721(\"Funoken\", \"FTK\") {}\r\n    \r\n    function mintToken(string memory tokenURI) external returns (uint256) {\r\n        _tokenIds.increment();\r\n        uint256 newItemId = _tokenIds.current();\r\n        _mint(msg.sender, newItemId);\r\n        _setTokenURI(newItemId, tokenURI);\r\n        idToBid[newItemId] = TokenBid(false, 0, address(0), 0, 0, 0);\r\n        return newItemId;\r\n    }\r\n    \r\n    function auction(uint256 itemId, uint256 amount, uint8 active) external onlyOwner(itemId) {\r\n        require(idToBid[itemId].forSale == false);\r\n        idToBid[itemId].forSale = true;\r\n        idToBid[itemId].highestBid = amount;\r\n        idToBid[itemId].auctionStart = block.timestamp;\r\n        idToBid[itemId].activeTime = active;\r\n        emit Auction(itemId, ownerOf(itemId));\r\n    }\r\n    \r\n    function bid(uint256 itemId) external payable upForSale(itemId){\r\n        require(block.timestamp<(idToBid[itemId].auctionStart + idToBid[itemId].activeTime*3600));\r\n        require(msg.value> idToBid[itemId].highestBid + 0.001 ether, \"Bid must be higher\"); \r\n        require(msg.sender != ownerOf(itemId));\r\n        \r\n        if(idToBid[itemId].bidsPlaced>0){\r\n            payable(idToBid[itemId].highestBidder).transfer(idToBid[itemId].highestBid);\r\n        }\r\n        idToBid[itemId].highestBid = msg.value;\r\n        idToBid[itemId].highestBidder = msg.sender;\r\n        idToBid[itemId].bidsPlaced++;\r\n        emit Bid(msg.sender, itemId, msg.value);\r\n    }\r\n    \r\n    function endAuction(uint256 itemId) external upForSale(itemId) onlyOwner(itemId) {\r\n        require(block.timestamp > idToBid[itemId].auctionStart + idToBid[itemId].activeTime*3600, \"Auction time has not ended yet\");\r\n        if (idToBid[itemId].bidsPlaced>0){\r\n            payable(ownerOf(itemId)).transfer(idToBid[itemId].highestBid);\r\n            emit Transaction(itemId, ownerOf(itemId), idToBid[itemId].highestBidder, idToBid[itemId].highestBid);\r\n            transferFrom(ownerOf(itemId), idToBid[itemId].highestBidder, itemId); \r\n        }\r\n        idToBid[itemId].forSale = false;\r\n        idToBid[itemId].bidsPlaced = 0;\r\n        idToBid[itemId].highestBid = 0;\r\n        idToBid[itemId].highestBidder = address(0);    \r\n        idToBid[itemId].auctionStart = 0;\r\n        idToBid[itemId].activeTime = 0;\r\n    }\r\n}",
  "sourcePath": "C:\\Users\\adnan\\Documents\\funoken-ropsten\\contracts\\Funoken.sol",
  "compiler": {
    "name": "solc",
    "version": "0.8.9+commit.e5eed63a.Emscripten.clang"
  },
  "schemaVersion": "3.4.3",
  "updatedAt": "2021-12-01T13:31:29.852Z",
  "networkType": "ethereum",
  "devdoc": {
    "kind": "dev",
    "methods": {
      "approve(address,uint256)": {
        "details": "See {IERC721-approve}."
      },
      "balanceOf(address)": {
        "details": "See {IERC721-balanceOf}."
      },
      "getApproved(uint256)": {
        "details": "See {IERC721-getApproved}."
      },
      "isApprovedForAll(address,address)": {
        "details": "See {IERC721-isApprovedForAll}."
      },
      "name()": {
        "details": "See {IERC721Metadata-name}."
      },
      "ownerOf(uint256)": {
        "details": "See {IERC721-ownerOf}."
      },
      "safeTransferFrom(address,address,uint256)": {
        "details": "See {IERC721-safeTransferFrom}."
      },
      "safeTransferFrom(address,address,uint256,bytes)": {
        "details": "See {IERC721-safeTransferFrom}."
      },
      "setApprovalForAll(address,bool)": {
        "details": "See {IERC721-setApprovalForAll}."
      },
      "supportsInterface(bytes4)": {
        "details": "See {IERC165-supportsInterface}."
      },
      "symbol()": {
        "details": "See {IERC721Metadata-symbol}."
      },
      "tokenURI(uint256)": {
        "details": "See {IERC721Metadata-tokenURI}."
      },
      "transferFrom(address,address,uint256)": {
        "details": "See {IERC721-transferFrom}."
      }
    },
    "version": 1
  },
  "userdoc": {
    "kind": "user",
    "methods": {},
    "version": 1
  }
}